{
    "_format": "hh-sol-artifact-1",
    "contractName": "NFTEpic",
    "sourceName": "contracts/NFTEpic.sol",
    "abi": [
        {
            "inputs": [],
            "stateMutability": "nonpayable",
            "type": "constructor"
        },
        {
            "anonymous": false,
            "inputs": [
                {
                    "indexed": true,
                    "internalType": "address",
                    "name": "owner",
                    "type": "address"
                },
                {
                    "indexed": true,
                    "internalType": "address",
                    "name": "approved",
                    "type": "address"
                },
                {
                    "indexed": true,
                    "internalType": "uint256",
                    "name": "tokenId",
                    "type": "uint256"
                }
            ],
            "name": "Approval",
            "type": "event"
        },
        {
            "anonymous": false,
            "inputs": [
                {
                    "indexed": true,
                    "internalType": "address",
                    "name": "owner",
                    "type": "address"
                },
                {
                    "indexed": true,
                    "internalType": "address",
                    "name": "operator",
                    "type": "address"
                },
                {
                    "indexed": false,
                    "internalType": "bool",
                    "name": "approved",
                    "type": "bool"
                }
            ],
            "name": "ApprovalForAll",
            "type": "event"
        },
        {
            "anonymous": false,
            "inputs": [
                {
                    "indexed": false,
                    "internalType": "address",
                    "name": "minter",
                    "type": "address"
                },
                {
                    "indexed": false,
                    "internalType": "uint256",
                    "name": "tokenNum",
                    "type": "uint256"
                }
            ],
            "name": "NFTMinted",
            "type": "event"
        },
        {
            "anonymous": false,
            "inputs": [
                {
                    "indexed": true,
                    "internalType": "address",
                    "name": "from",
                    "type": "address"
                },
                {
                    "indexed": true,
                    "internalType": "address",
                    "name": "to",
                    "type": "address"
                },
                {
                    "indexed": true,
                    "internalType": "uint256",
                    "name": "tokenId",
                    "type": "uint256"
                }
            ],
            "name": "Transfer",
            "type": "event"
        },
        {
            "inputs": [
                {
                    "internalType": "address",
                    "name": "to",
                    "type": "address"
                },
                {
                    "internalType": "uint256",
                    "name": "tokenId",
                    "type": "uint256"
                }
            ],
            "name": "approve",
            "outputs": [],
            "stateMutability": "nonpayable",
            "type": "function"
        },
        {
            "inputs": [
                {
                    "internalType": "address",
                    "name": "owner",
                    "type": "address"
                }
            ],
            "name": "balanceOf",
            "outputs": [
                {
                    "internalType": "uint256",
                    "name": "",
                    "type": "uint256"
                }
            ],
            "stateMutability": "view",
            "type": "function"
        },
        {
            "inputs": [
                {
                    "internalType": "uint256",
                    "name": "tokenId",
                    "type": "uint256"
                }
            ],
            "name": "getApproved",
            "outputs": [
                {
                    "internalType": "address",
                    "name": "",
                    "type": "address"
                }
            ],
            "stateMutability": "view",
            "type": "function"
        },
        {
            "inputs": [
                {
                    "internalType": "address",
                    "name": "owner",
                    "type": "address"
                },
                {
                    "internalType": "address",
                    "name": "operator",
                    "type": "address"
                }
            ],
            "name": "isApprovedForAll",
            "outputs": [
                {
                    "internalType": "bool",
                    "name": "",
                    "type": "bool"
                }
            ],
            "stateMutability": "view",
            "type": "function"
        },
        {
            "inputs": [],
            "name": "makeAnEpicNFT",
            "outputs": [],
            "stateMutability": "nonpayable",
            "type": "function"
        },
        {
            "inputs": [],
            "name": "name",
            "outputs": [
                {
                    "internalType": "string",
                    "name": "",
                    "type": "string"
                }
            ],
            "stateMutability": "view",
            "type": "function"
        },
        {
            "inputs": [
                {
                    "internalType": "uint256",
                    "name": "tokenId",
                    "type": "uint256"
                }
            ],
            "name": "ownerOf",
            "outputs": [
                {
                    "internalType": "address",
                    "name": "",
                    "type": "address"
                }
            ],
            "stateMutability": "view",
            "type": "function"
        },
        {
            "inputs": [
                {
                    "internalType": "uint256",
                    "name": "tokenId",
                    "type": "uint256"
                }
            ],
            "name": "pickRandomFirstWord",
            "outputs": [
                {
                    "internalType": "string",
                    "name": "",
                    "type": "string"
                }
            ],
            "stateMutability": "view",
            "type": "function"
        },
        {
            "inputs": [
                {
                    "internalType": "uint256",
                    "name": "tokenId",
                    "type": "uint256"
                }
            ],
            "name": "pickRandomSecondWord",
            "outputs": [
                {
                    "internalType": "string",
                    "name": "",
                    "type": "string"
                }
            ],
            "stateMutability": "view",
            "type": "function"
        },
        {
            "inputs": [
                {
                    "internalType": "uint256",
                    "name": "tokenId",
                    "type": "uint256"
                }
            ],
            "name": "pickRandomThirdWord",
            "outputs": [
                {
                    "internalType": "string",
                    "name": "",
                    "type": "string"
                }
            ],
            "stateMutability": "view",
            "type": "function"
        },
        {
            "inputs": [
                {
                    "internalType": "address",
                    "name": "from",
                    "type": "address"
                },
                {
                    "internalType": "address",
                    "name": "to",
                    "type": "address"
                },
                {
                    "internalType": "uint256",
                    "name": "tokenId",
                    "type": "uint256"
                }
            ],
            "name": "safeTransferFrom",
            "outputs": [],
            "stateMutability": "nonpayable",
            "type": "function"
        },
        {
            "inputs": [
                {
                    "internalType": "address",
                    "name": "from",
                    "type": "address"
                },
                {
                    "internalType": "address",
                    "name": "to",
                    "type": "address"
                },
                {
                    "internalType": "uint256",
                    "name": "tokenId",
                    "type": "uint256"
                },
                {
                    "internalType": "bytes",
                    "name": "_data",
                    "type": "bytes"
                }
            ],
            "name": "safeTransferFrom",
            "outputs": [],
            "stateMutability": "nonpayable",
            "type": "function"
        },
        {
            "inputs": [
                {
                    "internalType": "address",
                    "name": "operator",
                    "type": "address"
                },
                {
                    "internalType": "bool",
                    "name": "approved",
                    "type": "bool"
                }
            ],
            "name": "setApprovalForAll",
            "outputs": [],
            "stateMutability": "nonpayable",
            "type": "function"
        },
        {
            "inputs": [
                {
                    "internalType": "bytes4",
                    "name": "interfaceId",
                    "type": "bytes4"
                }
            ],
            "name": "supportsInterface",
            "outputs": [
                {
                    "internalType": "bool",
                    "name": "",
                    "type": "bool"
                }
            ],
            "stateMutability": "view",
            "type": "function"
        },
        {
            "inputs": [],
            "name": "symbol",
            "outputs": [
                {
                    "internalType": "string",
                    "name": "",
                    "type": "string"
                }
            ],
            "stateMutability": "view",
            "type": "function"
        },
        {
            "inputs": [
                {
                    "internalType": "uint256",
                    "name": "tokenId",
                    "type": "uint256"
                }
            ],
            "name": "tokenURI",
            "outputs": [
                {
                    "internalType": "string",
                    "name": "",
                    "type": "string"
                }
            ],
            "stateMutability": "view",
            "type": "function"
        },
        {
            "inputs": [],
            "name": "totalTokens",
            "outputs": [
                {
                    "internalType": "uint256",
                    "name": "",
                    "type": "uint256"
                }
            ],
            "stateMutability": "view",
            "type": "function"
        },
        {
            "inputs": [
                {
                    "internalType": "address",
                    "name": "from",
                    "type": "address"
                },
                {
                    "internalType": "address",
                    "name": "to",
                    "type": "address"
                },
                {
                    "internalType": "uint256",
                    "name": "tokenId",
                    "type": "uint256"
                }
            ],
            "name": "transferFrom",
            "outputs": [],
            "stateMutability": "nonpayable",
            "type": "function"
        }
    ],
    "bytecode": "0x6080604052600060085560405180610160016040528061012f8152602001620049cf61012f9139600990805190602001906200003d92919062000c49565b50604051806101c001604052806040518060400160405280600481526020017f4572656e0000000000000000000000000000000000000000000000000000000081525081526020016040518060400160405280600581526020017f41726d696e00000000000000000000000000000000000000000000000000000081525081526020016040518060400160405280600681526020017f4d696b617361000000000000000000000000000000000000000000000000000081525081526020016040518060400160405280600581526020017f416e6e696500000000000000000000000000000000000000000000000000000081525081526020016040518060400160405280600881526020017f486973746f72696100000000000000000000000000000000000000000000000081525081526020016040518060400160405280600481526020017f4a65616e0000000000000000000000000000000000000000000000000000000081525081526020016040518060400160405280600581526020017f48616e676500000000000000000000000000000000000000000000000000000081525081526020016040518060400160405280600481526020017f4c6576690000000000000000000000000000000000000000000000000000000081525081526020016040518060400160405280600581526020017f457277696e00000000000000000000000000000000000000000000000000000081525081526020016040518060400160405280600681526020017f5265696e6572000000000000000000000000000000000000000000000000000081525081526020016040518060400160405280600581526020017f536173686100000000000000000000000000000000000000000000000000000081525081526020016040518060400160405280600981526020017f42657274686f6c6474000000000000000000000000000000000000000000000081525081526020016040518060400160405280600681526020017f436f6e6e6965000000000000000000000000000000000000000000000000000081525081526020016040518060400160405280600481526020017f5a656b6500000000000000000000000000000000000000000000000000000000815250815250600a90600e6200039492919062000cda565b50604051806101c001604052806040518060400160405280600681526020017f596561676572000000000000000000000000000000000000000000000000000081525081526020016040518060400160405280600681526020017f41726c657274000000000000000000000000000000000000000000000000000081525081526020016040518060400160405280600881526020017f41636b65726d616e00000000000000000000000000000000000000000000000081525081526020016040518060400160405280600581526020017f427261757300000000000000000000000000000000000000000000000000000081525081526020016040518060400160405280600881526020017f537072696e67657200000000000000000000000000000000000000000000000081525081526020016040518060400160405280600a81526020017f4b69727363687465696e0000000000000000000000000000000000000000000081525081526020016040518060400160405280600581526020017f536d69746800000000000000000000000000000000000000000000000000000081525081526020016040518060400160405280600881526020017f41636b65726d616e00000000000000000000000000000000000000000000000081525081526020016040518060400160405280600381526020017f5a6f65000000000000000000000000000000000000000000000000000000000081525081526020016040518060400160405280600581526020017f427261756e00000000000000000000000000000000000000000000000000000081525081526020016040518060400160405280600881526020017f4c656f6e6861727400000000000000000000000000000000000000000000000081525081526020016040518060400160405280600681526020017f486f6f766572000000000000000000000000000000000000000000000000000081525081526020016040518060400160405280600581526020017f526569737300000000000000000000000000000000000000000000000000000081525081526020016040518060400160405280600681526020017f5965616765720000000000000000000000000000000000000000000000000000815250815250600b90600e620006eb92919062000cda565b50604051806101e001604052806040518060400160405280600581526020017f4b696c6c7300000000000000000000000000000000000000000000000000000081525081526020016040518060400160405280600881526020017f4578706c6f72657300000000000000000000000000000000000000000000000081525081526020016040518060400160405280600581526020017f436172657300000000000000000000000000000000000000000000000000000081525081526020016040518060400160405280600481526020017f456174730000000000000000000000000000000000000000000000000000000081525081526020016040518060400160405280600481526020017f446965730000000000000000000000000000000000000000000000000000000081525081526020016040518060400160405280600581526020017f466172747300000000000000000000000000000000000000000000000000000081525081526020016040518060400160405280600881526020017f497341486f72736500000000000000000000000000000000000000000000000081525081526020016040518060400160405280600b81526020017f53747261746567697a657300000000000000000000000000000000000000000081525081526020016040518060400160405280600781526020017f497353686f72740000000000000000000000000000000000000000000000000081525081526020016040518060400160405280600881526020017f497343726565707900000000000000000000000000000000000000000000000081525081526020016040518060400160405280600b81526020017f497344657072657373656400000000000000000000000000000000000000000081525081526020016040518060400160405280600681526020017f536c65657073000000000000000000000000000000000000000000000000000081525081526020016040518060400160405280600781526020017f4973456174656e0000000000000000000000000000000000000000000000000081525081526020016040518060400160405280600581526020017f517565656e00000000000000000000000000000000000000000000000000000081525081526020016040518060400160405280600581526020017f4d6f6e6b65000000000000000000000000000000000000000000000000000000815250815250600c90600f62000a7d92919062000d41565b5034801562000a8b57600080fd5b506040518060400160405280601381526020017f5368696e67656b694e6f4b796f6a696e4e4654000000000000000000000000008152506040518060400160405280600681526020017f414f544e46540000000000000000000000000000000000000000000000000000815250816000908051906020019062000b1092919062000c49565b50806001908051906020019062000b2992919062000c49565b50505062000b776040518060400160405280600f81526020017f414f54204e4654206d696e74657221000000000000000000000000000000000081525062000b7d60201b620012461760201c565b62000f62565b62000c1d8160405160240162000b94919062000e76565b6040516020818303038152906040527f41304fac000000000000000000000000000000000000000000000000000000007bffffffffffffffffffffffffffffffffffffffffffffffffffffffff19166020820180517bffffffffffffffffffffffffffffffffffffffffffffffffffffffff838183161783525050505062000c2060201b60201c565b50565b60008151905060006a636f6e736f6c652e6c6f679050602083016000808483855afa5050505050565b82805462000c579062000eec565b90600052602060002090601f01602090048101928262000c7b576000855562000cc7565b82601f1062000c9657805160ff191683800117855562000cc7565b8280016001018555821562000cc7579182015b8281111562000cc657825182559160200191906001019062000ca9565b5b50905062000cd6919062000da8565b5090565b82805482825590600052602060002090810192821562000d2e579160200282015b8281111562000d2d57825182908051906020019062000d1c92919062000c49565b509160200191906001019062000cfb565b5b50905062000d3d919062000dc7565b5090565b82805482825590600052602060002090810192821562000d95579160200282015b8281111562000d9457825182908051906020019062000d8392919062000c49565b509160200191906001019062000d62565b5b50905062000da4919062000dc7565b5090565b5b8082111562000dc357600081600090555060010162000da9565b5090565b5b8082111562000deb576000818162000de1919062000def565b5060010162000dc8565b5090565b50805462000dfd9062000eec565b6000825580601f1062000e11575062000e32565b601f01602090049060005260206000209081019062000e31919062000da8565b5b50565b600062000e428262000e9a565b62000e4e818562000ea5565b935062000e6081856020860162000eb6565b62000e6b8162000f51565b840191505092915050565b6000602082019050818103600083015262000e92818462000e35565b905092915050565b600081519050919050565b600082825260208201905092915050565b60005b8381101562000ed657808201518184015260208101905062000eb9565b8381111562000ee6576000848401525b50505050565b6000600282049050600182168062000f0557607f821691505b6020821081141562000f1c5762000f1b62000f22565b5b50919050565b7f4e487b7100000000000000000000000000000000000000000000000000000000600052602260045260246000fd5b6000601f19601f8301169050919050565b613a5d8062000f726000396000f3fe608060405234801561001057600080fd5b50600436106101165760003560e01c80637e1c0c09116100a2578063b88d4fde11610071578063b88d4fde14610305578063c575757a14610321578063c87b56dd14610351578063de9d132f14610381578063e985e9c51461038b57610116565b80637e1c0c091461027d57806395d89b411461029b578063a22cb465146102b9578063b187301f146102d557610116565b806323b872dd116100e957806323b872dd146101b55780632de38d68146101d157806342842e0e146102015780636352211e1461021d57806370a082311461024d57610116565b806301ffc9a71461011b57806306fdde031461014b578063081812fc14610169578063095ea7b314610199575b600080fd5b610135600480360381019061013091906124d9565b6103bb565b6040516101429190612c06565b60405180910390f35b61015361049d565b6040516101609190612c21565b60405180910390f35b610183600480360381019061017e919061252b565b61052f565b6040516101909190612b76565b60405180910390f35b6101b360048036038101906101ae919061249d565b6105b4565b005b6101cf60048036038101906101ca9190612397565b6106cc565b005b6101eb60048036038101906101e6919061252b565b61072c565b6040516101f89190612c21565b60405180910390f35b61021b60048036038101906102169190612397565b61084a565b005b6102376004803603810190610232919061252b565b61086a565b6040516102449190612b76565b60405180910390f35b61026760048036038101906102629190612332565b61091c565b6040516102749190612ea1565b60405180910390f35b6102856109d4565b6040516102929190612ea1565b60405180910390f35b6102a36109de565b6040516102b09190612c21565b60405180910390f35b6102d360048036038101906102ce9190612461565b610a70565b005b6102ef60048036038101906102ea919061252b565b610bf1565b6040516102fc9190612c21565b60405180910390f35b61031f600480360381019061031a91906123e6565b610d0f565b005b61033b6004803603810190610336919061252b565b610d71565b6040516103489190612c21565b60405180910390f35b61036b6004803603810190610366919061252b565b610e8f565b6040516103789190612c21565b60405180910390f35b610389610fe1565b005b6103a560048036038101906103a0919061235b565b6111b2565b6040516103b29190612c06565b60405180910390f35b60007f80ac58cd000000000000000000000000000000000000000000000000000000007bffffffffffffffffffffffffffffffffffffffffffffffffffffffff1916827bffffffffffffffffffffffffffffffffffffffffffffffffffffffff1916148061048657507f5b5e139f000000000000000000000000000000000000000000000000000000007bffffffffffffffffffffffffffffffffffffffffffffffffffffffff1916827bffffffffffffffffffffffffffffffffffffffffffffffffffffffff1916145b806104965750610495826112df565b5b9050919050565b6060600080546104ac90613135565b80601f01602080910402602001604051908101604052809291908181526020018280546104d890613135565b80156105255780601f106104fa57610100808354040283529160200191610525565b820191906000526020600020905b81548152906001019060200180831161050857829003601f168201915b5050505050905090565b600061053a82611349565b610579576040517f08c379a000000000000000000000000000000000000000000000000000000000815260040161057090612de1565b60405180910390fd5b6004600083815260200190815260200160002060009054906101000a900473ffffffffffffffffffffffffffffffffffffffff169050919050565b60006105bf8261086a565b90508073ffffffffffffffffffffffffffffffffffffffff168373ffffffffffffffffffffffffffffffffffffffff161415610630576040517f08c379a000000000000000000000000000000000000000000000000000000000815260040161062790612e41565b60405180910390fd5b8073ffffffffffffffffffffffffffffffffffffffff1661064f6113b5565b73ffffffffffffffffffffffffffffffffffffffff16148061067e575061067d816106786113b5565b6111b2565b5b6106bd576040517f08c379a00000000000000000000000000000000000000000000000000000000081526004016106b490612d21565b60405180910390fd5b6106c783836113bd565b505050565b6106dd6106d76113b5565b82611476565b61071c576040517f08c379a000000000000000000000000000000000000000000000000000000000815260040161071390612e61565b60405180910390fd5b610727838383611554565b505050565b6060600061076061073c846117b0565b60405160200161074c9190612b32565b60405160208183030381529060405261195d565b9050600a805490508161077391906131e1565b9050600a81815481106107af577f4e487b7100000000000000000000000000000000000000000000000000000000600052603260045260246000fd5b9060005260206000200180546107c490613135565b80601f01602080910402602001604051908101604052809291908181526020018280546107f090613135565b801561083d5780601f106108125761010080835404028352916020019161083d565b820191906000526020600020905b81548152906001019060200180831161082057829003601f168201915b5050505050915050919050565b61086583838360405180602001604052806000815250610d0f565b505050565b6000806002600084815260200190815260200160002060009054906101000a900473ffffffffffffffffffffffffffffffffffffffff169050600073ffffffffffffffffffffffffffffffffffffffff168173ffffffffffffffffffffffffffffffffffffffff161415610913576040517f08c379a000000000000000000000000000000000000000000000000000000000815260040161090a90612d61565b60405180910390fd5b80915050919050565b60008073ffffffffffffffffffffffffffffffffffffffff168273ffffffffffffffffffffffffffffffffffffffff16141561098d576040517f08c379a000000000000000000000000000000000000000000000000000000000815260040161098490612d41565b60405180910390fd5b600360008373ffffffffffffffffffffffffffffffffffffffff1673ffffffffffffffffffffffffffffffffffffffff168152602001908152602001600020549050919050565b6000600854905090565b6060600180546109ed90613135565b80601f0160208091040260200160405190810160405280929190818152602001828054610a1990613135565b8015610a665780601f10610a3b57610100808354040283529160200191610a66565b820191906000526020600020905b815481529060010190602001808311610a4957829003601f168201915b5050505050905090565b610a786113b5565b73ffffffffffffffffffffffffffffffffffffffff168273ffffffffffffffffffffffffffffffffffffffff161415610ae6576040517f08c379a0000000000000000000000000000000000000000000000000000000008152600401610add90612ce1565b60405180910390fd5b8060056000610af36113b5565b73ffffffffffffffffffffffffffffffffffffffff1673ffffffffffffffffffffffffffffffffffffffff16815260200190815260200160002060008473ffffffffffffffffffffffffffffffffffffffff1673ffffffffffffffffffffffffffffffffffffffff16815260200190815260200160002060006101000a81548160ff0219169083151502179055508173ffffffffffffffffffffffffffffffffffffffff16610ba06113b5565b73ffffffffffffffffffffffffffffffffffffffff167f17307eab39ab6107e8899845ad3d59bd9653f200f220920489ca2b5937696c3183604051610be59190612c06565b60405180910390a35050565b60606000610c25610c01846117b0565b604051602001610c119190612acb565b60405160208183030381529060405261195d565b9050600b8054905081610c3891906131e1565b9050600b8181548110610c74577f4e487b7100000000000000000000000000000000000000000000000000000000600052603260045260246000fd5b906000526020600020018054610c8990613135565b80601f0160208091040260200160405190810160405280929190818152602001828054610cb590613135565b8015610d025780601f10610cd757610100808354040283529160200191610d02565b820191906000526020600020905b815481529060010190602001808311610ce557829003601f168201915b5050505050915050919050565b610d20610d1a6113b5565b83611476565b610d5f576040517f08c379a0000000000000000000000000000000000000000000000000000000008152600401610d5690612e61565b60405180910390fd5b610d6b84848484611990565b50505050565b60606000610da5610d81846117b0565b604051602001610d919190612aa9565b60405160208183030381529060405261195d565b9050600c8054905081610db891906131e1565b9050600c8181548110610df4577f4e487b7100000000000000000000000000000000000000000000000000000000600052603260045260246000fd5b906000526020600020018054610e0990613135565b80601f0160208091040260200160405190810160405280929190818152602001828054610e3590613135565b8015610e825780601f10610e5757610100808354040283529160200191610e82565b820191906000526020600020905b815481529060010190602001808311610e6557829003601f168201915b5050505050915050919050565b6060610e9a82611349565b610ed9576040517f08c379a0000000000000000000000000000000000000000000000000000000008152600401610ed090612dc1565b60405180910390fd5b6000600660008481526020019081526020016000208054610ef990613135565b80601f0160208091040260200160405190810160405280929190818152602001828054610f2590613135565b8015610f725780601f10610f4757610100808354040283529160200191610f72565b820191906000526020600020905b815481529060010190602001808311610f5557829003601f168201915b505050505090506000610f836119ec565b9050600081511415610f99578192505050610fdc565b600082511115610fce578082604051602001610fb6929190612a25565b60405160208183030381529060405292505050610fdc565b610fd784611a03565b925050505b919050565b6064610fed6007611aaa565b1061102d576040517f08c379a000000000000000000000000000000000000000000000000000000000815260040161102490612e81565b60405180910390fd5b60006110396007611aaa565b905060006110468261072c565b9050600061105383610bf1565b9050600061106084610d71565b9050600083838360405160200161107993929190612a49565b604051602081830303815290604052905060006009826040516020016110a0929190612a7a565b604051602081830303815290604052905060006110e5836110c084611ab8565b6040516020016110d1929190612aed565b604051602081830303815290604052611ab8565b90506000816040516020016110fa9190612b54565b604051602081830303815290604052905061111481611246565b61111e3389611c76565b6111288882611c94565b60016008600082825461113b9190612f6a565b9250508190555061114c6007611d08565b61116f6040518060600160405280602581526020016139c3602591398933611d1e565b7f4cc0a9c4a99ddc700de1af2c9f916a7cbfdb71f14801ccff94061ad1ef8a804033896040516111a0929190612bdd565b60405180910390a15050505050505050565b6000600560008473ffffffffffffffffffffffffffffffffffffffff1673ffffffffffffffffffffffffffffffffffffffff16815260200190815260200160002060008373ffffffffffffffffffffffffffffffffffffffff1673ffffffffffffffffffffffffffffffffffffffff16815260200190815260200160002060009054906101000a900460ff16905092915050565b6112dc8160405160240161125a9190612c21565b6040516020818303038152906040527f41304fac000000000000000000000000000000000000000000000000000000007bffffffffffffffffffffffffffffffffffffffffffffffffffffffff19166020820180517bffffffffffffffffffffffffffffffffffffffffffffffffffffffff8381831617835250505050611dbd565b50565b60007f01ffc9a7000000000000000000000000000000000000000000000000000000007bffffffffffffffffffffffffffffffffffffffffffffffffffffffff1916827bffffffffffffffffffffffffffffffffffffffffffffffffffffffff1916149050919050565b60008073ffffffffffffffffffffffffffffffffffffffff166002600084815260200190815260200160002060009054906101000a900473ffffffffffffffffffffffffffffffffffffffff1673ffffffffffffffffffffffffffffffffffffffff1614159050919050565b600033905090565b816004600083815260200190815260200160002060006101000a81548173ffffffffffffffffffffffffffffffffffffffff021916908373ffffffffffffffffffffffffffffffffffffffff160217905550808273ffffffffffffffffffffffffffffffffffffffff166114308361086a565b73ffffffffffffffffffffffffffffffffffffffff167f8c5be1e5ebec7d5bd14f71427d1e84f3dd0314c0f7b2291e5b200ac8c7c3b92560405160405180910390a45050565b600061148182611349565b6114c0576040517f08c379a00000000000000000000000000000000000000000000000000000000081526004016114b790612d01565b60405180910390fd5b60006114cb8361086a565b90508073ffffffffffffffffffffffffffffffffffffffff168473ffffffffffffffffffffffffffffffffffffffff16148061153a57508373ffffffffffffffffffffffffffffffffffffffff166115228461052f565b73ffffffffffffffffffffffffffffffffffffffff16145b8061154b575061154a81856111b2565b5b91505092915050565b8273ffffffffffffffffffffffffffffffffffffffff166115748261086a565b73ffffffffffffffffffffffffffffffffffffffff16146115ca576040517f08c379a00000000000000000000000000000000000000000000000000000000081526004016115c190612e01565b60405180910390fd5b600073ffffffffffffffffffffffffffffffffffffffff168273ffffffffffffffffffffffffffffffffffffffff16141561163a576040517f08c379a000000000000000000000000000000000000000000000000000000000815260040161163190612cc1565b60405180910390fd5b611645838383611de6565b6116506000826113bd565b6001600360008573ffffffffffffffffffffffffffffffffffffffff1673ffffffffffffffffffffffffffffffffffffffff16815260200190815260200160002060008282546116a0919061304b565b925050819055506001600360008473ffffffffffffffffffffffffffffffffffffffff1673ffffffffffffffffffffffffffffffffffffffff16815260200190815260200160002060008282546116f79190612f6a565b92505081905550816002600083815260200190815260200160002060006101000a81548173ffffffffffffffffffffffffffffffffffffffff021916908373ffffffffffffffffffffffffffffffffffffffff160217905550808273ffffffffffffffffffffffffffffffffffffffff168473ffffffffffffffffffffffffffffffffffffffff167fddf252ad1be2c89b69c2b068fc378daa952ba7f163c4a11628f55a4df523b3ef60405160405180910390a4505050565b606060008214156117f8576040518060400160405280600181526020017f30000000000000000000000000000000000000000000000000000000000000008152509050611958565b600082905060005b6000821461182a57808061181390613198565b915050600a826118239190612fc0565b9150611800565b60008167ffffffffffffffff81111561186c577f4e487b7100000000000000000000000000000000000000000000000000000000600052604160045260246000fd5b6040519080825280601f01601f19166020018201604052801561189e5781602001600182028036833780820191505090505b5090505b60008514611951576001826118b7919061304b565b9150600a856118c691906131e1565b60306118d29190612f6a565b60f81b81838151811061190e577f4e487b7100000000000000000000000000000000000000000000000000000000600052603260045260246000fd5b60200101907effffffffffffffffffffffffffffffffffffffffffffffffffffffffffffff1916908160001a905350600a8561194a9190612fc0565b94506118a2565b8093505050505b919050565b6000816040516020016119709190612a0e565b6040516020818303038152906040528051906020012060001c9050919050565b61199b848484611554565b6119a784848484611deb565b6119e6576040517f08c379a00000000000000000000000000000000000000000000000000000000081526004016119dd90612c81565b60405180910390fd5b50505050565b606060405180602001604052806000815250905090565b6060611a0e82611349565b611a4d576040517f08c379a0000000000000000000000000000000000000000000000000000000008152600401611a4490612e21565b60405180910390fd5b6000611a576119ec565b90506000815111611a775760405180602001604052806000815250611aa2565b80611a81846117b0565b604051602001611a92929190612a25565b6040516020818303038152906040525b915050919050565b600081600001549050919050565b60606000825190506000811415611ae15760405180602001604052806000815250915050611c71565b60006003600283611af29190612f6a565b611afc9190612fc0565b6004611b089190612ff1565b90506000602082611b199190612f6a565b67ffffffffffffffff811115611b58577f4e487b7100000000000000000000000000000000000000000000000000000000600052604160045260246000fd5b6040519080825280601f01601f191660200182016040528015611b8a5781602001600182028036833780820191505090505b50905060006040518060600160405280604081526020016139e8604091399050600181016020830160005b86811015611c2e5760038101905062ffffff818a015116603f8160121c168401518060081b905060ff603f83600c1c1686015116810190508060081b905060ff603f8360061c1686015116810190508060081b905060ff603f831686015116810190508060e01b90508084526004840193505050611bb5565b506003860660018114611c485760028114611c5857611c63565b613d3d60f01b6002830352611c63565b603d60f81b60018303525b508484525050819450505050505b919050565b611c90828260405180602001604052806000815250611f82565b5050565b611c9d82611349565b611cdc576040517f08c379a0000000000000000000000000000000000000000000000000000000008152600401611cd390612d81565b60405180910390fd5b80600660008481526020019081526020016000209080519060200190611d039291906121be565b505050565b6001816000016000828254019250508190555050565b611db8838383604051602401611d3693929190612c43565b6040516020818303038152906040527fe3849f79000000000000000000000000000000000000000000000000000000007bffffffffffffffffffffffffffffffffffffffffffffffffffffffff19166020820180517bffffffffffffffffffffffffffffffffffffffffffffffffffffffff8381831617835250505050611dbd565b505050565b60008151905060006a636f6e736f6c652e6c6f679050602083016000808483855afa5050505050565b505050565b6000611e0c8473ffffffffffffffffffffffffffffffffffffffff16611fdd565b15611f75578373ffffffffffffffffffffffffffffffffffffffff1663150b7a02611e356113b5565b8786866040518563ffffffff1660e01b8152600401611e579493929190612b91565b602060405180830381600087803b158015611e7157600080fd5b505af1925050508015611ea257506040513d601f19601f82011682018060405250810190611e9f9190612502565b60015b611f25573d8060008114611ed2576040519150601f19603f3d011682016040523d82523d6000602084013e611ed7565b606091505b50600081511415611f1d576040517f08c379a0000000000000000000000000000000000000000000000000000000008152600401611f1490612c81565b60405180910390fd5b805181602001fd5b63150b7a0260e01b7bffffffffffffffffffffffffffffffffffffffffffffffffffffffff1916817bffffffffffffffffffffffffffffffffffffffffffffffffffffffff191614915050611f7a565b600190505b949350505050565b611f8c8383611ff0565b611f996000848484611deb565b611fd8576040517f08c379a0000000000000000000000000000000000000000000000000000000008152600401611fcf90612c81565b60405180910390fd5b505050565b600080823b905060008111915050919050565b600073ffffffffffffffffffffffffffffffffffffffff168273ffffffffffffffffffffffffffffffffffffffff161415612060576040517f08c379a000000000000000000000000000000000000000000000000000000000815260040161205790612da1565b60405180910390fd5b61206981611349565b156120a9576040517f08c379a00000000000000000000000000000000000000000000000000000000081526004016120a090612ca1565b60405180910390fd5b6120b560008383611de6565b6001600360008473ffffffffffffffffffffffffffffffffffffffff1673ffffffffffffffffffffffffffffffffffffffff16815260200190815260200160002060008282546121059190612f6a565b92505081905550816002600083815260200190815260200160002060006101000a81548173ffffffffffffffffffffffffffffffffffffffff021916908373ffffffffffffffffffffffffffffffffffffffff160217905550808273ffffffffffffffffffffffffffffffffffffffff16600073ffffffffffffffffffffffffffffffffffffffff167fddf252ad1be2c89b69c2b068fc378daa952ba7f163c4a11628f55a4df523b3ef60405160405180910390a45050565b8280546121ca90613135565b90600052602060002090601f0160209004810192826121ec5760008555612233565b82601f1061220557805160ff1916838001178555612233565b82800160010185558215612233579182015b82811115612232578251825591602001919060010190612217565b5b5090506122409190612244565b5090565b5b8082111561225d576000816000905550600101612245565b5090565b600061227461226f84612ee1565b612ebc565b90508281526020810184848401111561228c57600080fd5b6122978482856130f3565b509392505050565b6000813590506122ae81613966565b92915050565b6000813590506122c38161397d565b92915050565b6000813590506122d881613994565b92915050565b6000815190506122ed81613994565b92915050565b600082601f83011261230457600080fd5b8135612314848260208601612261565b91505092915050565b60008135905061232c816139ab565b92915050565b60006020828403121561234457600080fd5b60006123528482850161229f565b91505092915050565b6000806040838503121561236e57600080fd5b600061237c8582860161229f565b925050602061238d8582860161229f565b9150509250929050565b6000806000606084860312156123ac57600080fd5b60006123ba8682870161229f565b93505060206123cb8682870161229f565b92505060406123dc8682870161231d565b9150509250925092565b600080600080608085870312156123fc57600080fd5b600061240a8782880161229f565b945050602061241b8782880161229f565b935050604061242c8782880161231d565b925050606085013567ffffffffffffffff81111561244957600080fd5b612455878288016122f3565b91505092959194509250565b6000806040838503121561247457600080fd5b60006124828582860161229f565b9250506020612493858286016122b4565b9150509250929050565b600080604083850312156124b057600080fd5b60006124be8582860161229f565b92505060206124cf8582860161231d565b9150509250929050565b6000602082840312156124eb57600080fd5b60006124f9848285016122c9565b91505092915050565b60006020828403121561251457600080fd5b6000612522848285016122de565b91505092915050565b60006020828403121561253d57600080fd5b600061254b8482850161231d565b91505092915050565b61255d8161307f565b82525050565b61256c81613091565b82525050565b600061257d82612f27565b6125878185612f3d565b9350612597818560208601613102565b6125a0816132ce565b840191505092915050565b60006125b682612f32565b6125c08185612f4e565b93506125d0818560208601613102565b6125d9816132ce565b840191505092915050565b60006125ef82612f32565b6125f98185612f5f565b9350612609818560208601613102565b80840191505092915050565b6000815461262281613135565b61262c8186612f5f565b9450600182166000811461264757600181146126585761268b565b60ff1983168652818601935061268b565b61266185612f12565b60005b8381101561268357815481890152600182019150602081019050612664565b838801955050505b50505092915050565b60006126a1603283612f4e565b91506126ac826132df565b604082019050919050565b60006126c4601c83612f4e565b91506126cf8261332e565b602082019050919050565b60006126e7600a83612f5f565b91506126f282613357565b600a82019050919050565b600061270a602483612f4e565b915061271582613380565b604082019050919050565b600061272d601983612f4e565b9150612738826133cf565b602082019050919050565b6000612750600b83612f5f565b915061275b826133f8565b600b82019050919050565b6000612773602c83612f4e565b915061277e82613421565b604082019050919050565b6000612796606983612f5f565b91506127a182613470565b606982019050919050565b60006127b9600d83612f5f565b91506127c48261350b565b600d82019050919050565b60006127dc603883612f4e565b91506127e782613534565b604082019050919050565b60006127ff602a83612f4e565b915061280a82613583565b604082019050919050565b6000612822602983612f4e565b915061282d826135d2565b604082019050919050565b6000612845602e83612f4e565b915061285082613621565b604082019050919050565b6000612868600283612f5f565b915061287382613670565b600282019050919050565b600061288b602083612f4e565b915061289682613699565b602082019050919050565b60006128ae603183612f4e565b91506128b9826136c2565b604082019050919050565b60006128d1602c83612f4e565b91506128dc82613711565b604082019050919050565b60006128f4602983612f4e565b91506128ff82613760565b604082019050919050565b6000612917602f83612f4e565b9150612922826137af565b604082019050919050565b600061293a600a83612f5f565b9150612945826137fe565b600a82019050919050565b600061295d602183612f4e565b915061296882613827565b604082019050919050565b6000612980600a83612f5f565b915061298b82613876565b600a82019050919050565b60006129a3601d83612f5f565b91506129ae8261389f565b601d82019050919050565b60006129c6603183612f4e565b91506129d1826138c8565b604082019050919050565b60006129e9602383612f4e565b91506129f482613917565b604082019050919050565b612a08816130e9565b82525050565b6000612a1a82846125e4565b915081905092915050565b6000612a3182856125e4565b9150612a3d82846125e4565b91508190509392505050565b6000612a5582866125e4565b9150612a6182856125e4565b9150612a6d82846125e4565b9150819050949350505050565b6000612a868285612615565b9150612a9282846125e4565b9150612a9d826127ac565b91508190509392505050565b6000612ab4826126da565b9150612ac082846125e4565b915081905092915050565b6000612ad682612743565b9150612ae282846125e4565b915081905092915050565b6000612af88261292d565b9150612b0482856125e4565b9150612b0f82612789565b9150612b1b82846125e4565b9150612b268261285b565b91508190509392505050565b6000612b3d82612973565b9150612b4982846125e4565b915081905092915050565b6000612b5f82612996565b9150612b6b82846125e4565b915081905092915050565b6000602082019050612b8b6000830184612554565b92915050565b6000608082019050612ba66000830187612554565b612bb36020830186612554565b612bc060408301856129ff565b8181036060830152612bd28184612572565b905095945050505050565b6000604082019050612bf26000830185612554565b612bff60208301846129ff565b9392505050565b6000602082019050612c1b6000830184612563565b92915050565b60006020820190508181036000830152612c3b81846125ab565b905092915050565b60006060820190508181036000830152612c5d81866125ab565b9050612c6c60208301856129ff565b612c796040830184612554565b949350505050565b60006020820190508181036000830152612c9a81612694565b9050919050565b60006020820190508181036000830152612cba816126b7565b9050919050565b60006020820190508181036000830152612cda816126fd565b9050919050565b60006020820190508181036000830152612cfa81612720565b9050919050565b60006020820190508181036000830152612d1a81612766565b9050919050565b60006020820190508181036000830152612d3a816127cf565b9050919050565b60006020820190508181036000830152612d5a816127f2565b9050919050565b60006020820190508181036000830152612d7a81612815565b9050919050565b60006020820190508181036000830152612d9a81612838565b9050919050565b60006020820190508181036000830152612dba8161287e565b9050919050565b60006020820190508181036000830152612dda816128a1565b9050919050565b60006020820190508181036000830152612dfa816128c4565b9050919050565b60006020820190508181036000830152612e1a816128e7565b9050919050565b60006020820190508181036000830152612e3a8161290a565b9050919050565b60006020820190508181036000830152612e5a81612950565b9050919050565b60006020820190508181036000830152612e7a816129b9565b9050919050565b60006020820190508181036000830152612e9a816129dc565b9050919050565b6000602082019050612eb660008301846129ff565b92915050565b6000612ec6612ed7565b9050612ed28282613167565b919050565b6000604051905090565b600067ffffffffffffffff821115612efc57612efb61329f565b5b612f05826132ce565b9050602081019050919050565b60008190508160005260206000209050919050565b600081519050919050565b600081519050919050565b600082825260208201905092915050565b600082825260208201905092915050565b600081905092915050565b6000612f75826130e9565b9150612f80836130e9565b9250827fffffffffffffffffffffffffffffffffffffffffffffffffffffffffffffffff03821115612fb557612fb4613212565b5b828201905092915050565b6000612fcb826130e9565b9150612fd6836130e9565b925082612fe657612fe5613241565b5b828204905092915050565b6000612ffc826130e9565b9150613007836130e9565b9250817fffffffffffffffffffffffffffffffffffffffffffffffffffffffffffffffff04831182151516156130405761303f613212565b5b828202905092915050565b6000613056826130e9565b9150613061836130e9565b92508282101561307457613073613212565b5b828203905092915050565b600061308a826130c9565b9050919050565b60008115159050919050565b60007fffffffff0000000000000000000000000000000000000000000000000000000082169050919050565b600073ffffffffffffffffffffffffffffffffffffffff82169050919050565b6000819050919050565b82818337600083830152505050565b60005b83811015613120578082015181840152602081019050613105565b8381111561312f576000848401525b50505050565b6000600282049050600182168061314d57607f821691505b6020821081141561316157613160613270565b5b50919050565b613170826132ce565b810181811067ffffffffffffffff8211171561318f5761318e61329f565b5b80604052505050565b60006131a3826130e9565b91507fffffffffffffffffffffffffffffffffffffffffffffffffffffffffffffffff8214156131d6576131d5613212565b5b600182019050919050565b60006131ec826130e9565b91506131f7836130e9565b92508261320757613206613241565b5b828206905092915050565b7f4e487b7100000000000000000000000000000000000000000000000000000000600052601160045260246000fd5b7f4e487b7100000000000000000000000000000000000000000000000000000000600052601260045260246000fd5b7f4e487b7100000000000000000000000000000000000000000000000000000000600052602260045260246000fd5b7f4e487b7100000000000000000000000000000000000000000000000000000000600052604160045260246000fd5b6000601f19601f8301169050919050565b7f4552433732313a207472616e7366657220746f206e6f6e20455243373231526560008201527f63656976657220696d706c656d656e7465720000000000000000000000000000602082015250565b7f4552433732313a20746f6b656e20616c7265616479206d696e74656400000000600082015250565b7f54484952445f574f524400000000000000000000000000000000000000000000600082015250565b7f4552433732313a207472616e7366657220746f20746865207a65726f2061646460008201527f7265737300000000000000000000000000000000000000000000000000000000602082015250565b7f4552433732313a20617070726f766520746f2063616c6c657200000000000000600082015250565b7f5345434f4e445f574f5244000000000000000000000000000000000000000000600082015250565b7f4552433732313a206f70657261746f7220717565727920666f72206e6f6e657860008201527f697374656e7420746f6b656e0000000000000000000000000000000000000000602082015250565b7f222c20226465736372697074696f6e223a20224120686967686c79206163636c60008201527f61696d656420636f6c6c656374696f6e206f6620414f5420636861726163746560208201527f7273222c2022696d616765223a2022646174613a696d6167652f7376672b786d60408201527f6c3b6261736536342c0000000000000000000000000000000000000000000000606082015250565b7f3c2f746578743e3c2f7376673e00000000000000000000000000000000000000600082015250565b7f4552433732313a20617070726f76652063616c6c6572206973206e6f74206f7760008201527f6e6572206e6f7220617070726f76656420666f7220616c6c0000000000000000602082015250565b7f4552433732313a2062616c616e636520717565727920666f7220746865207a6560008201527f726f206164647265737300000000000000000000000000000000000000000000602082015250565b7f4552433732313a206f776e657220717565727920666f72206e6f6e657869737460008201527f656e7420746f6b656e0000000000000000000000000000000000000000000000602082015250565b7f45524337323155524953746f726167653a2055524920736574206f66206e6f6e60008201527f6578697374656e7420746f6b656e000000000000000000000000000000000000602082015250565b7f227d000000000000000000000000000000000000000000000000000000000000600082015250565b7f4552433732313a206d696e7420746f20746865207a65726f2061646472657373600082015250565b7f45524337323155524953746f726167653a2055524920717565727920666f722060008201527f6e6f6e6578697374656e7420746f6b656e000000000000000000000000000000602082015250565b7f4552433732313a20617070726f76656420717565727920666f72206e6f6e657860008201527f697374656e7420746f6b656e0000000000000000000000000000000000000000602082015250565b7f4552433732313a207472616e73666572206f6620746f6b656e2074686174206960008201527f73206e6f74206f776e0000000000000000000000000000000000000000000000602082015250565b7f4552433732314d657461646174613a2055524920717565727920666f72206e6f60008201527f6e6578697374656e7420746f6b656e0000000000000000000000000000000000602082015250565b7f7b226e616d65223a202200000000000000000000000000000000000000000000600082015250565b7f4552433732313a20617070726f76616c20746f2063757272656e74206f776e6560008201527f7200000000000000000000000000000000000000000000000000000000000000602082015250565b7f46495253545f574f524400000000000000000000000000000000000000000000600082015250565b7f646174613a6170706c69636174696f6e2f6a736f6e3b6261736536342c000000600082015250565b7f4552433732313a207472616e736665722063616c6c6572206973206e6f74206f60008201527f776e6572206e6f7220617070726f766564000000000000000000000000000000602082015250565b7f4f6e6c7920612068756e6472656420746f6b656e732063616e206265206d696e60008201527f7465640000000000000000000000000000000000000000000000000000000000602082015250565b61396f8161307f565b811461397a57600080fd5b50565b61398681613091565b811461399157600080fd5b50565b61399d8161309d565b81146139a857600080fd5b50565b6139b4816130e9565b81146139bf57600080fd5b5056fe416e204e465420772f20494420257320686173206265656e206d696e74656420746f2025734142434445464748494a4b4c4d4e4f505152535455565758595a6162636465666768696a6b6c6d6e6f707172737475767778797a303132333435363738392b2fa2646970667358221220fd9172f2073a599c78b02949cb0ad88f639f0fa6d5ad03501c67d32cf16accb264736f6c634300080400333c73766720786d6c6e733d27687474703a2f2f7777772e77332e6f72672f323030302f73766727207072657365727665417370656374526174696f3d27784d696e594d696e206d656574272076696577426f783d273020302033353020333530273e3c7374796c653e2e62617365207b2066696c6c3a2077686974653b20666f6e742d66616d696c793a2073657269663b20666f6e742d73697a653a20323470783b207d3c2f7374796c653e3c726563742077696474683d273130302527206865696768743d2731303025272066696c6c3d27626c61636b27202f3e3c7465787420783d273530252720793d273530252720636c6173733d27626173652720646f6d696e616e742d626173656c696e653d276d6964646c652720746578742d616e63686f723d276d6964646c65273e",
    "linkReferences": {},
    "deployedLinkReferences": {}
}